:400000000080002011000000690A0000690A000008B5044B1A6803F53F5302331A6000F043FD00BFFA46004010B5054C237833B9044B13B10448AFF300800123237010BD51
:400040006081FF1F00000000A8390000084B10B51BB108490848AFF300800848036803B910BD074B002BFBD0BDE81040184700BF000000006481FF1FA8390000C880FF1F10
:400080000000000008B50122024B1A6002F0F0FA08BD00BF7C81FF1F08B50122024B5A6002F0E4FB08BD00BF7C81FF1F8B780B2B02D801338B70704701238B708B88013368
:4000C0008B80704710B584B00C46002303931F238DF804301C228DF805208DF806301E228DF807208DF808308DF809208DF80A308DF80B208DF80C308DF80D208DF80E30A0
:400100008B8813F0030F02D11D238DF805306278A378013B04A90B4413F80C3C9A4202D20132627004E0012363702146FFF7BEFF2378062B02D80133237001E0012323709B
:4001400004B010BD08B50378162B02D80133037008BD00230370FFF7B5FF08BD08B543783A2B02D80133437008BD00234370FFF7E9FF08BD30B5B3B002F0A8FA044602F046
:40018000B5FA054602F0C2FAAC4210D0B4EB550F01D92A1B00E0624215440649684602F0DFFF684600F056FF284602F097FA33B030BD00BFC839000010B584B004AB03E9F5
:4001C000030010469DF808209DF809309DF80A10BDF80C4001940091024902F0C1FF04B010BD00BFDC39000070B58CB002AB83E80300164605AC0E4D0FCD0FC495E80700DC
:4002000084E807009DF80820013A9DF809309DF80A10BDF80C000CAC04EB820252F81C2C019000910349304602F09AFF0CB070BDAC390000F439000038B502F057FA02F0CC
:40024000A7FC04460D4602F035FA02F0A1FC02460B462046294602F05DFB22462B4602F037FE0022034B02F009FD02F019FF80B238BD00BF00408F4000B583B08DF80400FE
:400280008DF805100023022201A9682002F05CF802F028F910F0020FFAD003B05DF804FB08B5104BA3FB0023DB0803EB83035900411AC9B20C4BA3FB00235B09642202FB92
:4002C0001300C0B2401A094B83FB0023C017C0EBA300000100F070000144C9B20020FFF7CBFF08BDCDCCCCCC1F85EB516766666608B5104BA3FB0023DB0803EB830359000C
:40030000411AC9B20C4BA3FB00235B09642202FB1300C0B2401A094B83FB0023C017C0EBA300000100F070000144C9B20120FFF7A3FF08BDCDCCCCCC1F85EB5167666666A6
:4003400008B5114BA3FB0023DB0803EB83035900411AC9B20D4BA3FB00235B09642202FB1300C0B2401A0A4B83FB0023C017C0EBA300000100F03000014401F0BF010220EA
:40038000FFF77AFF08BD00BFCDCCCCCC1F85EB516766666608B500F007010320FFF76CFF08BD00BF08B5104BA3FB0023DB0803EB83035900411AC9B20C4BA3FB00235B0908
:4003C000642202FB1300C0B2401A094B83FB0023C017C0EBA300000100F030000144C9B20420FFF749FF08BDCDCCCCCC1F85EB516766666600B583B002A901F8010D002312
:400400000122682001F0A0FF02F06CF810F0020FFAD0002301220DF10701682001F0FAFF02F060F810F0010FFAD09DF8070003B05DF804FB08B50020FFF7DCFF00F00F011D
:40044000030903EB83035A00D2B28818C0B208BD08B50120FFF7CEFF00F00F01030903EB83035A00D2B28818C0B208BD08B50220FFF7C0FF00F00F01C0F3011303EB8303A2
:400480005A00D2B28818C0B208BD00BF08B50320FFF7B0FF00F0070008BD00BF08B50420FFF7A8FFC0F3011303EB83035A0000F00F001044C0B208BD10B50520FFF79AFFB2
:4004C000044610F0800F0CD01420FFF793FF411CC9B21420FFF7D0FE04F07F010520FFF7CBFE04F00F00C4F30014A20014446300DBB21844C0B210BD10B504460520FFF7E6
:4005000079FF10F0800F07D01420FFF773FF411CC9B21420FFF7B0FE104BA3FB0423DB0803EB83035900611AC9B20D48A0FB04304009642303FB1040C0B2401A094B83FBEB
:400540000023C017C0EBA300000100F010000144C9B20520FFF790FE10BD00BFCDCCCCCC1F85EB516766666638B50520FFF742FF05461420FFF73EFF044615F0800F0AD0E0
:400580000134E4B221461420FFF776FE05F07F010520FFF771FE0620FFF72CFF00F00F01020902EB82025300DBB2C818C3B204EB840404EB8404A000184480B238BD00BFA4
:4005C00038B5184DA5FB0032D20802EB82025100411AC9B2144CA4FB00325209642303FB1202521AD3B2401AC01A84FB0024C017C0EB6414E4B2A5FB0323DB081B01DBB296
:400600001944C9B20620FFF737FE0520FFF7F2FE00F07F010520FFF72FFE21461420FFF72BFE38BDCDCCCCCC1F85EB5110B50220FFF7E0FE10F0400F0DD000F00F04C0F371
:40064000001291000A445300DBB2E018C0B20C30C0B2FFF775FE1720FFF772FE3B20FFF747FE3020FFF71CFE1F20FFF79BFE0720FFF790FE0C20FFF73FFF40F2CF70FFF755
:400680009FFF00210E20FFF7F7FD0A2000F068FA10BD00BF38B505460C46FFF7C7FF0023AB80FFF7C7FEA870FFF7D2FE6870FFF7DDFE2870FFF7F2FE6070FFF7E7FE2070CC
:4006C000FFF7FAFEA070FFF74FFFA0800A4802F005F802F053F801F091FF01F027FFFFF7A9FE01F037FF01F019FFFF2001F0A8FF02F09CF838BD00BFC0C62D0010B59AB002
:4007000062B601F0AFFF2E4801F0A0FF2D4802F0A1F801F09DFC002002F096F8002001F07BFF29492948FFF7B5FF012001F074FF0121002000F094FB00F0CAFB0028FBD0CC
:40074000002001F069FF01F087FF02F089F8204B1B6823B100221E4B1A60FFF70BFD1C4B5B6863B100221A4B5A6017491748FFF7F5FC01F05DFFC043C0B201F04DFF01F03C
:40078000EFFE124CA070FFF757FDA080114800F061FC01AA2068A188FFF70EFD01A800F059FC094B01AA18689988FFF71DFD01A800F050FC4FF47A7000F0D2F9C7E700BF99
:4007C00085000000990000009881FF1FA081FF1F7C81FF1F083A0000FEE700BFF0B40022174611E050F82760F3B226F0FF0608E001EB420511F812406D78A5550132013BFD
:40080000DBB2002BF4D101371C2FEBD9F0BC7047064B1B78DBB203F00701054A11701B09013213704422034B1A707047CF0100496E5800407658004008B50A46002102F039
:4008400086FC08BD38B5344B1D78EDB20721334A1180192102321170062102F27E221170F3210A32117003221A708422A3F28F331A700522013B1A70294C04E04FF4F07040
:4008800001F0FAFF013C24B1264B1B7813F0200FF4D0214B1D705222A3F593631A70224B1B78DBB2214A13704FF4E262204B1A8041F25122023B1A80002419250CE01D4B83
:4008C0001B7803F0010343EA440404F003044FF4F07001F0D1FF013D0DB1032CEFD115B90320FFF779FF144A4FF48073138007231370002311490B704820023108701370EE
:400900000532137002220E4B1A700E4A137843F00103137038BD00BF9846004080400040A0860100084300400F010049A14600402242004025420040044000400640004000
:4009400001400040A243004008B502F0F5FB08BD38B572B6304A137843F00403137000240CE02E4D630019194A0011462A44084691882858FFF760FF0134E4B2072CF0D964
:4009800027494FF09040FFF729FF264A264B1A60264A137843F0020313701032137843F002031370224C237843F040032370A2F58632513A137843F0100313700A221D492F
:4009C0001D48FFF7C1FF0A221C491D48FFF7BCFF08221C491C48FFF7B7FF08221B491C48FFF7B2FF0A221B491B48FFF7ADFF1B4A137843F008031370194D61232B70FFF73C
:400A000021FFC1232B70FFF703FF0E2221461548FFF79AFF38BD00BFE8460040283A0000740000480B000B8B5816014003500140A043004044050048005100405005004896
:400A4000F05100405C0500481251004064050048225100406C050048305100402243004000480040B043004008B502F039FB03680C2B00D1FEE7FEE708B5094B1A68104464
:400A8000084BC31A802B02DC054B186005E002F027FB0C2303604FF0FF32104608BD00BFCC80FF1F9882FF1F08B5104E104D16E029686B68AC68002204E051F8040B43F8BF
:400AC000040B0432A242F8D1E868002203E0002143F8041B04328242F9D11035013E002EE6D102F003FBFFF709FEFEE701000000243C000008B5104A104B1A60104A136813
:400B000043F40073136000230AE0032B03D80D4A52F8231000E00C490C4A42F8231001332F2BF2D90A4B1A780A4B1A70074A0A4B1A60FFF70DFF08BD0004FA050CED00E0D4
:400B400014ED00E000000000690A00000080FF1FBC760040C080FF1F08ED00E001BE704710B5044605E0084B186801F085FEA4F50044B4F5004FF6D8034B586800FB04F08D
:400B800001F07AFE10BD00BFD080FF1F08B5034B1B7A00FB03F001F06FFE08BDD080FF1F70B504460E46074B1D681F2802D90020FFF7D4FF04F01F04103455F8240045F805
:400BC000246070BD08ED00E038B504460D46072902D90020FFF7C2FF1F2C02D90020FFF7BDFF04F01F0000F1604000F564406D01EDB2057038BD00BF134B1B78DBB20360B7
:400C0000124A127843EA02230360114A127843EA024303600F4A127843EA026303600E4B1B78DBB243600D4A127843EA022343600B4A127843EA024343600A4A127843EA96
:400C400002634360704700BF0301004904010049EC4600400201004901010049000100490501004906010049F8B501F00DFE0646404A137843F0010313701032137843F0A5
:400C80000103137001273C4B1F700225943B1D7002F5E2521B32137803F07F0313700020FFF774FF354C237803F0F9032370344A137803F0DF03137023783B43237038463F
:400CC000FFF764FF2820FFF761FF2E4B1A7802F07F021A701A7802F0BF021A7023782B4323702846FFF752FF237843F0040323700023254A137001321370304601F0C8FD76
:400D000007211720FFF760FF20491720FFF748FF07211820FFF758FF1D491820FFF740FF07211520FFF750FF1A491520FFF738FF07212846FFF748FF17492846FFF730FF75
:400D400007210320FFF740FF14490320FFF728FF07210420FFF738FF11490420FFF720FF07210C20FFF730FF0E490C20FFF718FFF8BD00BFA54300409D6000409443004051
:400D800012600040F8510040846000405D1600004514000059160000B9150000E91500001D1600006516000008B5214B18700023204A1370204A1370204A1370204A137097
:400DC000204A1370204A1370204A1370204B4FF400021A604FF080721A604FF400121A6004221A6008221A6010221A6011B1012906D00BE0174A137803F0FE0313700AE09E
:400E0000144A137843F00103137004E0114A137843F00103137003220F4B1A708022203B1A70012001F028FD04220C4B1A7008BDC181FF1FC481FF1FE081FF1FE381FF1F34
:400E4000D881FF1FE281FF1FE581FF1FC081FF1F00E100E009600040286000401260004038B504460D46064B1B7823B9FFF7FCFE0122034B1A7029462046FFF795FF38BD2A
:400E80008481FF1F00230A4A13700A4A13700A4A13700A4A13700A4A13700A4A13700A4A13700322094B1A708022203B1A707047C481FF1FE081FF1FE381FF1FD881FF1FEF
:400EC000E281FF1FE581FF1FC081FF1F28600040014B1878704700BFE381FF1F431EDBB2072B3CD8F0B4074600EB4004A3001C4C2344DB889BB2C3F500739A4208D900EBA9
:400F0000400293002344DA8892B2C2F5007292B200EB4004A300124C2344DB7843EA1223104D04012E192B55D3B2737039B909E0CE5C3D010C4C665501339BB200E00023AB
:400F40009A42F5D8420002449300054A134400225A705A79D2B20001044B1A54F0BC7047E881FF1FFC5F004078600040FE5F00400246002001E0013080B2135C002BFAD1BB
:400F8000704700BF10B4FF2400230EE0094AD25C02EB42029100084A11448A7AD2B2824201D11C4602230133DBB2012BEED9204610BC7047B081FF1FE881FF1F10B5204C90
:400FC0002079FFF7DFFF237813F0800F0ED06378DBB2212B2FD11B4B07221A80C0EBC000194A1044586000F09BFA10BD144B5B78DBB2202B02D0222B10D01EE0114A0723E4
:401000001380C0EBC00310490B4453600F4A135C43F00103135400F0ABFA10BD084B9B780B4A22F81030094A135C43F00203135400F034F910BD002010BD002010BD00BF93
:4010400000600040CC81FF1FE080FF1FA881FF1FBC81FF1F2DE9F8438046234B1B78234AD65CF6B2FFF784FF05460027344606EB460293001E4A13441B899BB29D4209D944
:4010800006EB460293001A4A1344B3F808901FFA89F900E0A9464A4608EB07013046FFF71DFFC9EB0505ADB245B906EB460293000F4A13441B899BB2994510D14F44BFB29E
:4010C00004EB440293000A4A13445B7813F0FF0FF6D025B9002211463046FFF7FFFE002DC4D1BDE8F88300BF8581FF1FAC81FF1FE881FF1FC37803F0030390F90200002895
:401100000FDA032B06D002F001030B48C15442F001020EE0C2F380030848C15442F0040207E0032B05D0C2F340030548C15442F002021046704700BFAC81FF1FB081FF1F8C
:40114000B481FF1F1D4B19781D4A13889BB20B449BB2138000220FE01A494B681B78DBB2194883544B6801334B600132D2B20B889BB2013B9BB20B80124B1B889BB20BB1E0
:40118000072AE9D90D4B1B78DBB2082B00D05AB10E490B7883F080030B700F210C4B197002210C4B197004E0022309490B7009490B70094B1A70014B1A707047C081FF1FEB
:4011C000C281FF1FCC81FF1F006000405682FF1FE181FF1FC481FF1FE481FF1F0222074B1A708022064B1A700F22064B1A700023054A1370054A137001207047C481FF1F9C
:401200005682FF1FE181FF1FC081FF1FE481FF1F08B5FFF797FF08BD10B4194B197801F00F010239C9B2174A13889BB20B449BB21380002011E0144A5468144B1B5CDBB2D2
:4012400023705368013353600130C0B20139C9B213889BB2013B9BB213800B4B1B889BB20BB10029E7D10A4B19700A4A137883F0800313700B22084B1A7010BC704700BF78
:4012800029600040C281FF1FCC81FF1F00600040E481FF1F5682FF1FE181FF1F0623064A1370064A13708022054B1A700022054B1A700120704700BFC481FF1FE181FF1F3F
:4012C0005682FF1FE481FF1F064B9B6843B1054B9A6810709A6804490988518000229A60704700BFCC81FF1FC281FF1F08B5134B1A78D2B21A701B78DBB213F0800F02D00D
:401300000F4A137008BD0220FFF7DEFF0D4B1B7803F06003202B05D0402B06D043B900F093FC06E001F0C2FA03E000F037FE00E0002010B90322024B1A7008BD286000400D
:40134000E181FF1F0060004008B5094B1978094A13889BB20B449BB213800022064B1A700120FFF7B1FF0322044B1A7008BD00BFC081FF1FC281FF1FC481FF1FE181FF1F58
:4013800008B50B4B1B78DBB2042B06D0062B07D0022B0BD1FFF7D8FF08BDFFF73DFF08BD0320FFF791FF0322024B1A7008BD00BFC481FF1FE181FF1F08B50022044B1A7097
:4013C0000120FFF781FF0322024B1A7008BD00BFC481FF1FE181FF1F08B50B4B1B7813F0FF0F07D0084A137843F0800307490B70002313700022064B1A700120FFF764FFEA
:401400000322044B1A7008BDE281FF1F08600040C481FF1FE181FF1F08B5094B1B78DBB2042B06D0062B07D0022B07D1FFF7F0FE08BDFFF7C1FF08BDFFF7CEFF08BD00BF2F
:40144000C481FF1F08B5284B1B78DBB213F0100F48D013F0800F0CD003F00F03012B16D1FFF744FF214B1B7813F0800F11D1012312E013F0400F03D0FFF7CEFF01230BE040
:4014800013F0200F07D0FFF77BFF012304E0002302E0002300E0002323B3134B1B7813F0800F1FD1124B1B78124A12781343124A13701278D2B2934214D10C4B1B78DBB2ED
:4014C000094A127812F0800F07D1084B1B78DBB2054A1370137803F00F03044A1278D2B29342EAD108BD00BF28600040E181FF1F5682FF1FE481FF1F296000400022064B64
:401500001A80064B9B682BB1044A916800230B7092685380704700BFC281FF1FCC81FF1F08B50F4B1B889BB213B9FFF757FE15E002220C4B1A7000220B4B1A70FFF7DEFF00
:401540000A4AD179937943EA0123054A128892B2934201D2024A1380FFF7F4FD012008BDCC81FF1FC481FF1F5682FF1F0060004008B504220B4B1A7080220B4B1A70FFF750
:40158000BDFF0A4AD179937943EA0123084A128892B2934201D2064A13800B22054B1A70012008BDC481FF1F5682FF1F00600040CC81FF1FE181FF1F0122094B1A700F3B9D
:4015C0009B7C084B1B7B03F00303934204D0054AD37B83F08003D3730122024B5A7370470B600040E881FF1F02220A4B1A700F3B93F82230084B1B7E03F00303012B04D03B
:40160000054AD37E83F08003D3760122024B5A76704700BF0B600040E881FF1F04220C4B1A700F3B93F832300A4B93F8243003F00303012B06D0074A92F8273083F080034E
:4016400082F827300122034B83F82520704700BF0B600040E881FF1F704700BF08B5FFF711FC08BD08B500F0A5FC08BD70B588B0054603AC174E0FCE0FC43368237035B330
:4016800022232B7003236B7001A8FFF7B5FA002402231AE008AA224412F81C2C08A901EB121111F8141CE954581C00212954981C02F00F0208AE324412F8142C2A54DA1C65
:4016C000A9540134E4B20433DBB2212BE2D908B070BD00BF583A000010B401233EE019461A010C242148845403EB4300820020480244527912F0FF0F13D003EB430082005E
:401700001B480244127912F0800F04D01801194A024494700AE01801164A02440820907004E01801134A0244802090704800084482000F480244D488E4B208010B490144F2
:401740008C71D088C0F30720C871D088C0B20871D288C2F307224A710133DBB2082BBED9FF22054B1A7010BC704700BF70600040E881FF1FFC5F00400A600040074B1A7843
:40178000074B03EBC2035B681A7C824204D9C000103018444068704700207047C181FF1F6C3A0000F8B5404B1B7813F0FF0F79D03D4B18780138C0B2FFF7E0FF047AC2682D
:4017C0003A4B1878C0B200236AE01178884264D13749095CC9B25578A9425ED1917801F07F01D67806F00306DFF8C8E04D000D44AF000EEB07054FF0000C85F803C092F879
:4018000002C085F804C092F803C00EF807C097882F8192F90250002D0DDA012E01D1072700E00D274E000E44B500224E35446F7101266E700CE0012E01D1052700E009273C
:401840004E000E44B5001B4E35446F7100266E70DFF868E00F010EEB07060125B57001FA05F529448D00134929440D89C5F307250EF807500D89EDB27570CE88F6B20E4DCB
:401880003D44AE71CE88C6F30726EE71CE88F6B22E71C988C1F30721697108320133DBB2A34292D3F8BD00BFE381FF1FD881FF1F5482FF1FE881FF1F70600040FC5F004071
:4018C000034B1A78034B03EBC2035868704700BFC181FF1F6C3A000008B5084B18780138C0B2FFF74BFF30B142681279023200EBC203586808BD002008BD00BFE381FF1F9B
:401900002DE9F047002310E0724D5900CA189600AC190022AA55A270E2702281A272627034462C4462710133DBB2082BECD940B90AE000226849CA546849CA540133DBB20A
:4019400000E00023012BF4D9654B1B7813F0FF0F00F0BD80624B18780138C0B2FFF70EFF80464368DB7913F0400F05D05D4A137843F00103137004E05A4A137803F0FE0320
:40198000137098F808704FF0000A01266FE0D8F80C50002467E0AB7803F07F039E425FD1314606EB460083004A4803441B899BB2A888834206D206EB460E4FEA8E03454A38
:4019C000134418812B784448C35CDBB26878834246D195F802C0DFF8FCE04B000B4498000EEB000383F804C0EB780EF80030EB7803F0030395F90200002813DA012B02D158
:401A00004FF0070901E04FF00D09DFF8C8E04B0003EB010C4FEA8C00704480F805900121417012E0012B02D14FF0050901E04FF00909DFF8A0E04B0003EB010C4FEA8C0031
:401A4000704480F8059000214170AB790A2B01D0022B05D1524631462846FFF74BFB824608350134E4B2BC4295D30136F6B2082E8DD9D8F80C0000220CE0837803F07F03E2
:401A800010F8084B03EB43039900124B19448C720132D2B2BA42F0D3FFF71EFF124B1860002301210FE00B4D4A00501884002C44E380228992B213449BB203F00102134473
:401AC0009BB20131C9B20829EDD9FFF705FEBDE8F08700BFE881FF1F5482FF1FC881FF1FE381FF1FE581FF1FDC81FF1F08B5154B1B7903F07F035A1ED2B2072A20D859001A
:401B000019448A0010490A44917841F0010191700021D170517841F002015170127912F0800F05D01B01094A1A448D23937004E01B01064A1A4489239370FFF7AFFB08BD87
:401B4000002008BD00600040E881FF1FFC5F0040274B1B7903F07F035A1ED2B2072A44D810B5590019448A0022490A44917801F0FE0191700021D1701F4C1801215C01F0EE
:401B80007F012154517801F0FD015170127912F0800F13D003EB43018A0016490A445278D2B2012A04D1224602440C23937019E01B01114A1A440D23937013E003EB4301FB
:401BC0008A000C490A445278D2B2012A05D11B01094A1A440823937004E01B01064A1A4409239370FFF75AFB10BD0020704700BF00600040E881FF1FFC5F004010B50E4B03
:401C00001C79E4B20D4B18780138C0B2FFF7B6FD43681B799C4201D9022C0AD8084A135DDBB208490B55044B9B78DBB21355012010BD002010BD00BF00600040E381FF1F23
:401C40005482FF1FC881FF1F10B59C4B1B78DBB200219B4A118013F0800F00F0AD80974A5278D2B20A2A00F27481DFE812F06900720172017201720172010B00720192002C
:401C800072019A008D4BDB78DBB2012B09D1FFF717FE42688A4B5A6012221A80FFF740FC10BD864BDB78DBB2022B13D1834B9878FFF764FD002800F04E814268804B5A603B
:401CC0005A68D1785A68927842EA01221A80FFF727FC10BD794BDB78DBB2032B05D02CE00A7811440133DBB201E000237549734A9278D2B2934203D20A7812F0FF0FEFD1EA
:401D00006E4B9B7813F0FF0F0BD06C4B9B78DBB26D4A127C934204D16C4C2046FFF7A6FC21460B7813F0FF0F00F017810B78644A13805160FFF7F4FB10BD00F0B7FD10BDD4
:401D400013F0030317D0022B40F009815C490B805A4B1B7903F07F0303EB43039A005C4B1A449278D2B25B4B1A7000225A704B60FFF7D6FB10BD524902230B80564B1A7874
:401D8000D2B2544B1A7000225A704B60FFF7C8FB10BD4B4B01221A80504A5A60FFF7C0FB10BD474A01231380444B1B794C490B445360FFF7B5FB10BD404A5278013A0A2AFC
:401DC00000F2CF80DFE812F04C00CD009800CD000B00CD00CD00CD001300CD003000374B9B78DBB23F4A1370FFF758FA10BD334B9B7803F0FF041BB1601EC0B2FFF7BEFCA3
:401E000004B110B9002C40F0AE80344B1B78DBB29C4206D0314B1C700120334B1870FFF76FFDFFF73BFA10BDFFF7E8FE002800F09C80224A1379DBB21279D2B22B490A702C
:401E40002B4AD25CD2B22649CB5CDBB29A4204D00122254B1A70FFF7A5FCFFF71FFA10BD03F00303012B17D04BB1022B7FD1134B9B7813F0FF0F7CD1FFF76AFE10BD0F4BFF
:401E80009B78DBB2012B76D1134A137803F0FD031370FFF703FA10BD084B1B79DBB2012B6BD8064B98781B79DBB21249CA5C22EA0002CA54FFF7F2F910BD00BF00600040D2
:401EC000CC81FF1FD43A0000B83B00006C82FF1FE881FF1F8881FF1FE581FF1FE381FF1F5482FF1FE281FF1FE081FF1FD881FF1FC881FF1F5882FF1F03F00303012B17D0E0
:401F00004BB1022B3BD1224B9B7813F0FF0F38D1FFF7ECFD10BD1E4B9B78DBB2012B32D11C4A137843F002031370FFF7B7F910BD174B1B79DBB2012B27D8154B98781B791D
:401F4000DBB21549CA5C22EA0002CA54FFF7A6F910BD002010BD002010BD002010BD002010BD002010BD002010BD002010BD002010BD002010BD002010BD002010BD002073
:401F800010BD002010BD002010BD002010BD00BF00600040E581FF1F5882FF1F044B1B7813F0800F01D0024B5B780020704700BF00600040024B1878C0F38010704700BF81
:401FC0008F45004010B50222114B1A7081220E3B1A70082202331A701E2211331A70002401331C704FF400420A4B1A6007210F20FEF7EAFD08490F20FEF7D2FD1022074B5E
:402000001A70074B1C70074B1C70074B1C7010BDD649004080E100E0792000005A82FF1F5E82FF1F6682FF1F5C82FF1F08B500F02BFC064A137843F0040313701032137843
:4020400043F00403137000F023FC08BDA543004008B5074B1B7823B9FFF7B4FF0122044B1A70FFF7E3FF4FF40042024B1A6008BD8A81FF1F00E100E038B5A54B1C78A54B50
:402080001B7813F0400F00F03A81E4B214F0010F00F01D819F4B1B78453B052B00F21481DFE813F006008200120112010600DF0004F0DF0504F00A04082C42D1954B1B78B3
:4020C000DBB2452B35D1944B1B7813F0FF0F10D0924B1B681B78DBB2914A137004228C4B1A7001228F4B1A7046228A4B1A702C46EDE08D4B1B7813F0020F0DD08B4A1378CC
:4021000043F00A0313706022824B1A704FF40042874B1A602C46DAE0864A137843F0100313701022844B1A700422023B1A702C46CDE00022764B1A704A22764B1A702C46B5
:40214000C5E00A2C2BD1794A137843F0A0031370754B1B7813F0020F14D06E4B1B7813F0080F01D0092300E00A23704A11780B4313706022674B1A704FF400426C4B1A609E
:402180002C46A4E06B4A137843F0100313701022694B1A700422023B1A702C4697E00020FEF7DCFC2C4692E014F0020F36D15D4B1A78D2B2584B1B78DBB29A4210D2594A0B
:4021C0001378DBB255490968CB5CDBB254490B7004214F4B197013780133DBB2137076E0514B1B7813F0020F0CD0504A137843F00A0313706022474B1A704FF400424C4BBE
:402200001A6064E04B4A137843F0100313701022494B1A700422023B1A7058E0424B1B7813F0020F0CD0414A137843F09A0313706022384B1A704FF400423D4B1A6046E0CD
:402240003C4A137843F01003137010223A4B1A700422023B1A70354A137843F09003137035E0364A1378DBB2354908682C490978C9B2C15413780133DBB213701278D2B205
:40228000304B1B78DBB29A4203D21022204B1A701DE0254B1B7813F0020F0CD0234A137843F00903137060221A4B1A704FF400421F4B1A600BE01F4A137843F0100313707F
:4022C0000022134B1A7002E00020FEF747FC14F0200F1CD00F4B1B7813F0080F01D0012300E00223114A11780B431370114A137803F0EF0313701022064B1A7038BD054B25
:402300001B7813F0100F02D11022024B1A7038BDD74900405A82FF1F5D82FF1F6882FF1FD84900405C82FF1F6482FF1F5E82FF1F80E100E0D6490040D94900406682FF1F51
:402340006082FF1F6582FF1F002948D070B40C4626490978C9B2102906D12549097811F0080F11D1002112E020490978C9B260290CD14FF400451F490D601F4D297801F004
:40238000F7012970002102E0012100E0022149BB4526164D2E700026184D2E70184D2A70184A1460184A1370134C227802F0FD0222704200D2B21548027013F0010F06D017
:4023C00012220B4B1A700422023B1A7002E00122074B1A704FF400420D4B1A6002E0022108467047084670BC704700BF5A82FF1FD949004080E200E05E82FF1F5C82FF1F12
:402400005D82FF1F6882FF1F6482FF1FD849004000E100E000294AD070B40C4627490978C9B2102906D12649097811F0080F11D1002112E021490978C9B260290CD14FF430
:40244000004520490D60204D297801F0F7012970002102E0012100E0022159BB4926174D2E700026194D2E70194D2A70194A1460194A1370144C227802F0FE02227042005D
:40248000D2B242F001021548027013F0010F06D012220B4B1A700422023B1A7002E00122074B1A704FF400420D4B1A6002E0022108467047084670BC704700BF5A82FF1F7E
:4024C000D949004080E200E05E82FF1F6682FF1F6582FF1F6082FF1F6482FF1FD849004000E100E04FF40042084B1A60084B1878C0B2084B1B7813F0400F01D040F0040025
:402500004FF40042044B1A60704700BF80E100E05E82FF1F5A82FF1F00E100E0024A137843F080031370704777650040024A137803F07F031370704777650040014B187084
:40254000704700BF87650040014B1878704700BF67650040014B1870704700BF07650040024B1B78024B1878704700BF0765004047650040014B1878704700BF476500405C
:40258000014B1870704700BF27650040014B1870704700BF3765004008B501E0FFF7EAFFFFF7D2FF10F0400FF8D108BD08B5114B1A7802F0F8021A701A7802F0FC021A7091
:4025C000FFF7EAFF3C20FFF7DBFF0020FFF7C2FF1C20FFF7B3FFFFF7B7FF0120FFF7D6FF00F052F9044A137843F01003137000F04FF908BD776500409765004008B5054B3E
:402600001B7823B9FFF7D2FF0122024B1A70FFF785FF08BD8B81FF1F044A137803F0F80300F0070018431070704700BF00510040024B187800F00700704700BF0151004085
:40264000014B1870704700BF75640040014B1B681864704708ED00E00122014B1A60704700E100E00122014B1A60704780E100E00122014B1A60704780E200E0024A137825
:4026800043F080031370704774640040014B1870704700BF85640040014B1878704700BF6564004008B50146014800F0F5F808BD04640040034B1B78034B186820F07F402F
:4026C000704700BF0464004044640040024B186820F07F40704700BF4464004008B50146014800F0D9F808BD24640040024B186820F07F40704700BF2464004008B5014661
:40270000014800F0C9F808BD3464004008B501E0FFF7DCFFFFF7C0FF10F0400FF8D108BD10B5134A137803F0F8031370137803F0FC0343F008031370FFF7E8FF0D4C204609
:40274000FFF7CCFF2046FFF7ADFF1020FFF79EFFFFF7A2FF0120FFF7D1FF00F095F8064A137843F01003137000F092F810BD00BF74640040C0C62D009564004008B5054B17
:402780001B7823B9FFF7CCFF0122024B1A70FFF775FF08BD8C81FF1F024A137843F080031370704776640040014B1870704700BF86650040014B1878704700BF66650040E2
:4027C000014B1880704700BF4A6A0040014B188880B270478A6A0040014B1880704700BF0A6A004008B501E0FFF7F0FFFFF7E2FF10F0080FF8D108BD08B547F6FF70FFF716
:40280000DFFF47F6FF70FFF7E7FF00F03DF8064A137843F01003137000F03AF8FFF7E2FF0020FFF7C1FF08BD9665004008B5054B1B7823B9FFF7E0FF0122024B1A70FFF759
:40284000ABFF08BD8D81FF1F014B1870704700BF77640040014B1B685864704708ED00E00222014B1A60704700E100E00222014B1A60704780E200E00230800803D000BFB0
:4028800001380046FCD17047EFF3108072B6704780F31088704700BFCBB20370C1F307234370C1F307418170704700BF08B5144B1B7803F00303012B02D0022B04D00FE0C9
:4028C0000F4B1B79DBB20CE00D4B1B7903F07F0303EB43039A000B4B1A44937ADBB200E00023022B07D8084A1268D35C022B04D1FEF764FB08BD002008BD002008BD00BF46
:4029000000600040E881FF1FDC81FF1F81F0004102E000BF83F0004330B54FEA41044FEA430594EA050F08BF90EA020F1FBF54EA000C55EA020C7FEA645C7FEA655C00F06C
:40294000E2804FEA5454D4EB5555B8BF6D420CDD2C4480EA020281EA030382EA000083EA010180EA020281EA0303362D88BF30BD11F0004F4FEA01314FF4801C4CEA1131EA
:4029800002D0404261EB410113F0004F4FEA03334CEA133302D0524263EB430394EA050F00F0A780A4F10104D5F1200E0DDB02FA0EFC22FA05F2801841F1000103FA0EF2FE
:4029C000801843FA05F359410EE0A5F120050EF1200E012A03FA0EFC28BF4CF0020C43FA05F3C01851EBE37101F0004507D54FF0000EDCF1000C7EEB00006EEB0101B1F5F8
:402A0000801F1BD3B1F5001F0CD349085FEA30004FEA3C0C04F101044FEA445212F5800F80F09A80BCF1004F08BF5FEA500C50F1000041EB045141EA050130BD5FEA4C0C48
:402A4000404141EB010111F4801FA4F10104E9D191F0000F04BF01460020B1FA81F308BF2033A3F10B03B3F120020CDA0C3208DD02F1140CC2F10C0201FA0CF021FA02F172
:402A80000CE002F11402D8BFC2F1200C01FA02F120FA0CFCDCBF41EA0C019040E41AA2BF01EB0451294330BD6FEA04041F3C1CDA0C340EDC04F11404C4F1200220FA04F031
:402AC00001FA02F340EA030021FA04F345EA030130BDC4F10C04C4F1200220FA02F001FA04F340EA0300294630BD21FA04F0294630BD94F0000F83F4801306BF81F4801191
:402B00000134013D4EE77FEA645C18BF7FEA655C29D094EA050F08BF90EA020F05D054EA000C04BF1946104630BD91EA030F1EBF0021002030BD5FEA545C05D14000494131
:402B400028BF41F0004130BD14F580043CBF01F5801130BD01F0004545F0FE4141F470014FF0000030BD7FEA645C1ABF194610467FEA655C1CBF0B46024650EA013406BF0E
:402B800052EA033591EA030F41F4002130BD00BF90F0000F04BF0021704730B54FF4806404F132044FF000054FF0000150E700BF90F0000F04BF0021704730B54FF4806401
:402BC00004F1320410F0004548BF40424FF000013EE700BF42004FEAE2014FEA31014FEA02701FBF12F07F4393F07F4F81F06051704792F0000F14BF93F07F4F704730B527
:402C00004FF4607401F0004521F0004120E700BF50EA010208BF704730B54FF000050AE050EA010208BF704730B511F0004502D5404261EB41014FF4806404F132045FEAF9
:402C4000915C3FF4DCAE4FF003025FEADC0C18BF03325FEADC0C18BF033202EBDC02C2F1200300FA03FC20FA02F001FA03FE40EA0E0021FA02F11444C1E600BF70B54FF0E2
:402C8000FF0C4CF4E06C1CEA11541DBF1CEA135594EA0C0F95EA0C0F00F0DEF82C4481EA030621EA4C5123EA4C5350EA013518BF52EA033541F4801143F4801338D0A0FBA9
:402CC00002CE4FF00005E1FB02E506F00042E0FB03E54FF00006E1FB03569CF0000F18BF4EF0010EA4F1FF04B6F5007F64F5407404D25FEA4E0E6D4146EB060642EAC62181
:402D000041EA55514FEAC52040EA5E504FEACE2EB4F1FD0C88BFBCF5E06F1ED8BEF1004F08BF5FEA500E50F1000041EB045170BD06F0004646EA010140EA020081EA030148
:402D4000B4EB5C04C2BFD4EB0C0541EA045170BD41F480114FF0000E013C00F3AB8014F1360FDEBF002001F0004170BDC4F10004203C35DA0C341BDC04F11404C4F1200540
:402D800000FA05F320FA04F001FA05F240EA020001F0004221F0004110EBD37021FA04F642EB06015EEA430E08BF20EAD37070BDC4F10C04C4F1200500FA04F320FA05F070
:402DC00001FA04F240EA020001F0004110EBD37041F100015EEA430E08BF20EAD37070BDC4F1200500FA05F24EEA020E20FA04F301FA05F243EA020321FA04F001F00041B0
:402E000021FA04F220EA020000EBD3705EEA430E08BF20EAD37070BD94F0000F0FD101F00046400041EB010111F4801F08BF013CF7D041EA060195F0000F18BF704703F09F
:402E40000046520043EB030313F4801F08BF013DF7D043EA0603704794EA0C0F0CEA135518BF95EA0C0F0CD050EA410618BF52EA4306D1D181EA030101F000414FF0000084
:402E800070BD50EA410606BF1046194652EA430619D094EA0C0F02D150EA013613D195EA0C0F05D152EA03361CBF104619460AD181EA030101F0004141F0FE4141F47001B4
:402EC0004FF0000070BD41F0FE4141F4780170BD70B54FF0FF0C4CF4E06C1CEA11541DBF1CEA135594EA0C0F95EA0C0F00F0A7F8A4EB050481EA030E52EA03354FEA0131B6
:402F000000F088804FEA03334FF0805545EA131343EA12634FEA022245EA111545EA10654FEA00260EF000419D4208BF964244F1FD0404F5407402D25B084FEA3202B61A56
:402F400065EB03055B084FEA32024FF480104FF4002CB6EB020E75EB030E22BFB61A754640EA0C005B084FEA3202B6EB020E75EB030E22BFB61A754640EA5C005B084FEAA3
:402F80003202B6EB020E75EB030E22BFB61A754640EA9C005B084FEA3202B6EB020E75EB030E22BFB61A754640EADC0055EA060E18D04FEA051545EA16754FEA06164FEA4F
:402FC000C30343EA52734FEAC2025FEA1C1CC0D111F4801F0BD141EA00014FF000004FF0004CB6E711F4801F04BF01430020B4F1FD0C88BFBCF5E06F3FF6AFAEB5EB030CF6
:4030000004BFB6EB020C5FEA500C50F1000041EB045170BD0EF0004E4EEA113114EB5C04C2BFD4EB0C0541EA045170BD41F480114FF0000E013C90E645EA060E8DE60CEAF5
:40304000135594EA0C0F08BF95EA0C0F3FF43BAF94EA0C0F0AD150EA01347FF434AF95EA0C0F7FF425AF104619462CE795EA0C0F06D152EA03353FF4FDAE1046194622E76E
:4030800050EA410618BF52EA43067FF4C5AE50EA41047FF40DAF52EA43057FF4EBAE12E74A0011D212F5001211D20DD56FF47873B3EB62520ED44FEAC12343F0004343EAC9
:4030C000505323FA02F070474FF00000704750EA013002D14FF0FF3070474FF000007047014B1868704700BF5C81FF1F0E4B70B51E460E4C0025E41AA410A54204D056F8BF
:40310000253098470135F8E700F07AFD084B094C1E46E41AA4100025A54204D056F8253098470135F8E770BD0C3C00000C3C00000C3C0000143C000010B5431E0A4491420E
:4031400004D011F8014B03F8014FF8E710BD03460244934202D003F8011BFAE7704700000EB400B54FF402719CB0ADF814106FF00041049107914FF6FF711DAB0290069096
:40318000084853F8042BADF81610006802A9019300F064F8029B00221A701CB05DF804EB03B070475C81FF1F2DE9F0478E6882469E420C46914698463ED88A8912F4906FA9
:4031C0003AD02568096902236F1A656905EB450595FBF3F57B1C43449D4238BF1D4653050FD5294600F040FB064698B13A462169FFF7A2FFA38923F4906343F08003A38125
:4032000013E02A4600F08EFB064670B92169504600F0DEFA0C23CAF80030A3894FF0FF3043F04003A381BDE8F08726613E44266046466561ED1BA560464528BF4646494669
:403240003246206800F0A8FAA36800209B1BA36023681E442660BDE8F08700002DE9F04F9DB003938B8980461C060D4616460DD50B695BB9402100F0F7FA2860286118B9D8
:403280000C23C8F80030CDE040236B610023099320238DF82930DFF89CB130238DF82A3037463C4614F8013B1BB9B7EB060910D003E0252BF9D02746F3E74B463246294676
:4032C0004046FFF771FF013000F0A780099B4B4409933B78002B00F0A08000234FF0FF3204930793059206938DF853301A930126052221784E4800F041FA671C049B38B181
:403300004B4A3C46801A06FA00F018430490EFE7D90644BF20228DF853201A0744BF2B228DF8532022782A2A03D0079A00210A200BE0039A111D12680391002A10DA524289
:4033400043F00200079204900BE027463B780134303B092B03D800FB02320121F5E701B107923B782E2B1ED17B782A2B0AD1039B02371A1D1B680392002BB8BF4FF0FF3362
:40338000059310E0002319460593781C0A2407463A780130303A092A03D804FB01210123F5E703B1059103223978224800F0E6F940B14023CBEB000003FA00F0049B0137B9
:4033C00018430490397806221B487E1C8DF8281000F0D4F988B1194B33B9039B073323F007030833039314E003AB00932A46144B04A94046AFF3008007E003AB00932A464E
:403400000F4B04A9404600F093F8B0F1FF3F824603D0099B5344099342E7AB895B0601D4099801E04FF0FF301DB0BDE8F08F00BFCC3B0000D23B0000D63B000000000000DB
:40344000A93100002DE9F04791461F460A698B6806469342B8BF1346C9F8003091F843200C46DDF8208012B10133C9F800302368990642BFD9F800300233C9F80030256827
:4034800015F0060510D104F1190A07E00123524639463046C04701301AD00135E368D9F800209B1A9D42F1DB94F843302268003318BF012392060FD5E118302081F843003F
:4034C0005A1C94F845102244023382F8431003E04FF0FF30BDE8F08704F1430239463046C0470130F4D02268D9F80050E36802F00602042A08BF5D1B2269A3680CBF25EAA8
:40350000E57500259342C4BF9B1AED184FF000091A344D4509D00123224639463046C0470130D5D009F10109F3E70020BDE8F0872DE9F04317460A7E85B06E2A984606465C
:403540000C460C9B01F1430E00F0AE8011D8632A22D009D8002A00F0BB80582A40F0CA8081F84520834955E0642A1ED0692A1CD0C0E0732A00F0B08009D86F2A2ED0702A0E
:4035800040F0B8800A6842F020020A603EE0752A24D0782A3AD0ADE01A6801F14205111D1960136884F84230A8E021681A6811F0800F02D0111D196008E011F0400F02F1F7
:4035C0000401196002D0B2F9003000E01368002B3CDA2D225B4284F8432037E021681A6811F0800F02D0111D196007E011F0400F02F10401196001D0138800E01368227EFF
:403600005C496F2A14BF0A2208221BE078225A4984F845202268186812F0800F00F104051D6003D1550601D5038800E00368D00744BF42F0200222601BB9226822F02002DB
:4036400022601022002084F8430001E049490A226568002DA56008DB206820F0040020602BB9002D7DD175460CE0002B79D07546B3FBF2F002FB1033CB5C05F8013D03466A
:403680000028F5D1082A0BD12368DA0708D5236962689A42DEBF302305F8013C05F1FF35C5EB0E0323612EE008681A6810F0800F496903D0101D1860136808E010F0400F8F
:4036C00002F104001860136801D0198000E0196000232361754616E01A68111D1960156800216268284600F049F808B1401B6060636804E004F1420584F842200123236150
:40370000002384F84330CDF800803B4603AA21463046FFF797FE013002D14FF0FF3026E023692A4639463046C0470130F5D023689B0710D5002504F1190907E001234A464D
:4037400039463046C0470130E7D00135E368039A9B1A9D42F2DBE068039B9842B8BF184605E00B7804F1420584F842308AE705B0BDE8F083DD3B0000EE3B000010B5C9B200
:4037800002449042034605D01C7801308C42F8D1184610BD002010BD884210B501EB020301D8421E0BE09842FBD28118D21AD34204D013F8014D01F8014DF8E710BD99427F
:4037C00004D011F8014B02F8014FF8E710BD000038B50546002944D051F8043C0C1F002BB8BFE41800F0D4F81E4A1368114613B96360146030E0A3420DD92268A018834208
:4038000001BF18685B681218226063600C6023E0A24203D813465A68002AF9D118681918A1420BD12168014458188242196013D110685268014419605A600DE002D90C2369
:403840002B6009E021686018824201BF106852680918216062605C602846BDE8384000F098B838BD9481FF1F70B5CD1C25F0030508350C2D38BF0C25002D064601DBA94201
:4038800002D90C23336046E000F082F8234B1C681A462146A1B10B685B1B0ED40B2B03D90B60CC18CD501EE08C420BBF63684B681360636018BF0C4615E00C464968E9E74C
:4038C000174C23681BB9304600F052F820602946304600F04DF8431C18D0C41C24F00304A0420DD12560304600F053F804F10B00231D20F00700C31A0ED05A42E25070BD77
:40390000211A304600F034F80130EBD10C233360304600F03EF8002070BD00BF9481FF1F9081FF1FF8B5074615460E4621B91146BDE8F840FFF798BF1AB9FFF749FF28467E
:40394000F8BD00F027F885420ED929463846FFF78BFF044650B131462A46FFF7EDFB31463846FFF735FF01E03046F8BD2046F8BD38B5064C0023054608462360FDF77CF82C
:40398000431C02D1236803B12B6038BD9082FF1F7047704751F8040C0028BEBF091851F8043CC01804387047000000000C3A0000103A0000143A0000183A00001C3A00007F
:4039C000203A0000243A000025640D0A0000000025733A2025750D0A00000000253032643A253032643A253032643A253033640D0A000000257320253032642D253032649F
:403A00002D253034640D0A000D0A00004D6F6E00547565005765640054687500467269005361740053756E00C84900401900405100403000C05100401000000001400010F9
:403A400000140140000800400140000A004C01400002005001402000303132333435363738394142434445460000000001000000743A000001000000B83B000000000000D9
:403A800000000000010000008C3A000001000000743B000003000000B83A00000000000000000000000000000000000000000000B43A0000020A0000000081030800020012
:403AC0000100820240000A000100030240000A0002030000040309042C0343007900700072006500730073002000530065006D00690063006F006E006400750063007400D8
:403B00006F007200100355005300420055004100520054003803430044004300200043006F006D006D0075006E00690063006100740069006F006E00200049006E007400A5
:403B4000650072006600610063006500260343004400430020004400610074006100200049006E007400650072006600610063006500000009024300020101803209040090
:403B8000000102020103052400100104240202052406000105240100010705810308000A09040100020A00000407058202400000070503024000000012010002020000083B
:403BC000B40432F20100010280014300232D302B2000686C4C006566674546470030313233343536373839414243444546003031323334353637383961626364656600002E
:403C0000F8B500BFF8BC08BC9E4670474D000000F50A0000F8B500BFF8BC08BC9E46704729000000383C0000C880FF1F980000003801000000000000000000009882FF1F2E
:403C40000000C05D80BB000030000000006CDC0200C2010000000800C201000000080000A12000000000020000000000000000000000000000000000000000000000000019
:403C8000000000000000000000000000CA3B0000000000000000000000000000000000000000000000000000000000000000000000000000000000000000000000000000FF
:403CC000000000000000000000000000FC80FF1F0000000000000000000000000000000000000000000000000000000000000000000000000000000000000000000000002A
:403D00000000000000000000000000000000000000000000000000000000000000000000000000000000000000000000000000000000000000000000000000000000000083
:403D40000000000000000000000000000000000000000000000000000000000000000000000000000000000000000000000000000000000000000000000000000000000043
:403D80000000000000000000000000000000000000000000000000000000000000000000000000000000000000000000000000000000000000000000000000000000000003
:403DC00000000000000000000000000000000000000000000000000000000000000000000000000000000000000000000000000000000000000000000000000000000000C3
:020000040003F7
:0200000480007A
:4000000001450040065200400164004002650040040301404C040140270501404906014041070140020D0140371401403A150140491601403417014002190140031B0140A4
:40004000074001400F41014006420140064301400445014003460140074701400948014019490140094C0140064D014004500140035101407E0200040105112018C019403C
:400080007C40857B860D876786028C40E248E6020E031201140118041E011F012A0C2E0630063301340836013E404014420349FF4AFF4BFF4DA04F0150185280560858049F
:4000C00059045A045B045C995D995F016040628064406540668068406A506BA86C406D206E506FA89901AF03B302B701BF40C054C202C9FFCAFFCBFFCDAFCE07CF01D01873
:40010000D41BD604D904DA04DB04DC90DD99DF01E040E280E440E540E680E840EA50EBA8EC40ED20EE50EFA80040098A0A081140131018411A081B402108264027102E80C3
:4001400031803710400141044302450147204F8058405D205E816180660A67056D40710294409E02C001C20FC403CA10CC28D0ABD210D6B8D8F80E011602170225012E0481
:400180002F01300132023404350237013B2040544202450C4604472E483549FF4AFF4BFF4DAF4E074F0150185280580459045A045B0A5C995D995F016040628064406540FB
:4001C000668068406A506BA86C406D206E506FA887058B0A8F10910C92039402950A9D059F0AA310A710A910B103B201B30CB510B602B703BB80BE40BF14D608D804D90401
:40020000DB04DC99DD90DF01058009010A100E10154019041A111F292008210623222640270429052B082D402F2131023244350438443B10450147204F8455015688570278
:40024000580859105A405B106002622063106A8074027E20812183219040920895089601971599809C409D209E889F20A340A501A702AD80C080C22CC480CA57CC4BCE0E4F
:40028000D0A0D210D60ED80EDE40E208E6020F0118011F02220225022A0132023302340135013E103F04580459045C995F0182018D0491019507960199029A029E01A403A9
:4002C000A507AF07B107B403B808BE04C015C103C9FFCAFFCBFFCF01D018D401D80BD90BDA0BDB04DC99DD99DF01E040E240E440E540E680E880EA80EC80EE8007400920C7
:400300000D800E281088170419181E081F28212022042602274029082C022F2030803612370438803F8047444F805E807C02804888088D10960898029B049C089D109F40A9
:40034000A082A180A250A340A708AC40AF20B040C010C2E2C42ACA52CCE8CE18D050D210D610DE80E080E240E403E880EA05EE04120216011E013001320234013E01401583
:40038000410345EC4602480749FF4AFF4BFF4D834E034F0150185401580B5A0B5B0B5C095D995F056040624064406540668068806A806C806E8091029703B101B702BF4087
:4003C000C065C103C524C6C0C70EC81FC9FFCAFFCBFFCDA0CF01D018D280D407D604D904DA04DB04DC90DD99DF01E040E280E440E540E680E840EA50EBA8EC40ED20EE5069
:40040000EFA80C020D800E201C041E60210222403106430845044744484449044B804D044F815080510852105340558057405A885B205D045E405F016108621063407101E8
:400440007C027D088740940498029B049C489D11A006A240AA40AB14B702C2B0CC03D052D21CD6DED807DEC0EA02E810EA02E403EA05EE0430403301340236403B10CCF0F4
:40048000CE100C8051025602844287108E0297109C429F01A640C280D480D620E210E6503E109F01A080A502A640CE2096109F01A502A640AC80E810632085018601D80291
:4004C00095029601A71009080A010D0195029601A710C20E261086409610A640A902AF01C820E640EAC007040A020E224D085C0464088201830486018A108D089004980841
:40050000A80CAA10B210C080C2E0D280D680D880E080E4C0EAA0EE20132814207B107F10AD08B710C40EDE03E808831087109720A710A820AB2801010B0111011B0100AF47
:40054000010203C00700F0F700000500000000004000000000000000C0000000000B0B0000000000002020002000000010002810C000C00000000000000000000000000084
:40058000000000000000000000000000000000000000000000000000000000000000000000000000000000000000000000000000000000000000000000000000000000003B
:4005C00000000000000000000000000000000000000000000000000000000000000000000000000000000000000000000000000000000000000000000000000000000000FB
:4006000000000000000000000000000000000000000000000000000000000000000000000000000000000000000000000000000000000000000000000000000000000000BA
:40064000000000000000000000000000000000000000000000000000000000000000000000000000000000000000000000000000000000000000000000000000000000007A
:0200000490006A
:0400000000004005B7
:0200000490105A
:04000000BC90ACAF55
:0200000490303A
:020000009DC39E
:0200000490402A
:4000000000000000000000000000000000000000000000000000000000000000000000000000000000000000000000000000000000000000000000000000000000000000C0
:400040000000000000000000000000000000000000000000000000000000000000000000000000000000000000000000000000000000000000000000000000000000000080
:400080000000000000000000000000000000000000000000000000000000000000000000000000000000000000000000000000000000000000000000000000000000000040
:4000C0000000000000000000000000000000000000000000000000000000000000000000000000000000000000000000000000000000000000000000000000000000000000
:0200000490501A
:0C00000000012E16106900012E2EAE2CFF
:00000001FF